{
  "contractName": "FractionalAsset",
  "abi": [
    {
      "inputs": [],
      "stateMutability": "nonpayable",
      "type": "constructor"
    },
    {
      "inputs": [
        {
          "internalType": "string",
          "name": "user_id",
          "type": "string"
        },
        {
          "internalType": "uint256",
          "name": "requested",
          "type": "uint256"
        },
        {
          "internalType": "uint256",
          "name": "available",
          "type": "uint256"
        }
      ],
      "name": "NotEnoughFunds",
      "type": "error"
    },
    {
      "anonymous": false,
      "inputs": [
        {
          "indexed": false,
          "internalType": "string",
          "name": "asset_ticker",
          "type": "string"
        },
        {
          "indexed": false,
          "internalType": "uint256",
          "name": "asset_token_id",
          "type": "uint256"
        }
      ],
      "name": "NewAssetCreatedEvent",
      "type": "event"
    },
    {
      "inputs": [],
      "name": "owner",
      "outputs": [
        {
          "internalType": "address",
          "name": "",
          "type": "address"
        }
      ],
      "stateMutability": "view",
      "type": "function"
    },
    {
      "inputs": [],
      "name": "total_assets",
      "outputs": [
        {
          "internalType": "uint256",
          "name": "",
          "type": "uint256"
        }
      ],
      "stateMutability": "view",
      "type": "function"
    },
    {
      "inputs": [
        {
          "internalType": "string",
          "name": "ticker",
          "type": "string"
        },
        {
          "internalType": "uint256",
          "name": "amount",
          "type": "uint256"
        },
        {
          "internalType": "uint256",
          "name": "token_price",
          "type": "uint256"
        },
        {
          "internalType": "uint256",
          "name": "total_supply",
          "type": "uint256"
        }
      ],
      "name": "tokenize",
      "outputs": [
        {
          "internalType": "uint256",
          "name": "",
          "type": "uint256"
        }
      ],
      "stateMutability": "nonpayable",
      "type": "function"
    },
    {
      "inputs": [
        {
          "internalType": "uint256",
          "name": "asset_id",
          "type": "uint256"
        }
      ],
      "name": "get_asset_details",
      "outputs": [
        {
          "internalType": "string",
          "name": "",
          "type": "string"
        },
        {
          "internalType": "uint256",
          "name": "",
          "type": "uint256"
        },
        {
          "internalType": "uint256",
          "name": "",
          "type": "uint256"
        },
        {
          "internalType": "uint256",
          "name": "",
          "type": "uint256"
        },
        {
          "internalType": "uint256",
          "name": "",
          "type": "uint256"
        }
      ],
      "stateMutability": "view",
      "type": "function"
    },
    {
      "inputs": [],
      "name": "get_total_assets",
      "outputs": [
        {
          "internalType": "uint256",
          "name": "",
          "type": "uint256"
        }
      ],
      "stateMutability": "view",
      "type": "function"
    },
    {
      "inputs": [],
      "name": "get_owner",
      "outputs": [
        {
          "internalType": "address",
          "name": "",
          "type": "address"
        }
      ],
      "stateMutability": "view",
      "type": "function"
    },
    {
      "inputs": [
        {
          "internalType": "string",
          "name": "user_id",
          "type": "string"
        },
        {
          "internalType": "string",
          "name": "asset_ticker",
          "type": "string"
        },
        {
          "internalType": "uint256",
          "name": "size",
          "type": "uint256"
        }
      ],
      "name": "buy_asset",
      "outputs": [
        {
          "internalType": "bool",
          "name": "is_successful",
          "type": "bool"
        }
      ],
      "stateMutability": "nonpayable",
      "type": "function"
    },
    {
      "inputs": [
        {
          "internalType": "string",
          "name": "user_id",
          "type": "string"
        },
        {
          "internalType": "string",
          "name": "asset_ticker",
          "type": "string"
        },
        {
          "internalType": "uint256",
          "name": "size",
          "type": "uint256"
        }
      ],
      "name": "sell_asset",
      "outputs": [
        {
          "internalType": "bool",
          "name": "is_successful",
          "type": "bool"
        }
      ],
      "stateMutability": "nonpayable",
      "type": "function"
    }
  ],
  "bytecode": "0x608060405234801561001057600080fd5b5033600160006101000a81548173ffffffffffffffffffffffffffffffffffffffff021916908373ffffffffffffffffffffffffffffffffffffffff16021790555060008081905550611525806100686000396000f3fe608060405234801561001057600080fd5b50600436106100885760003560e01c80638da5cb5b1161005b5780638da5cb5b14610117578063b53dd02614610135578063b5afe29f14610165578063d878c9021461019957610088565b80630ac298dc1461008d5780630b3d0470146100ab5780637c5f18f5146100c95780637d596a68146100f9575b600080fd5b6100956101c9565b6040516100a29190610c13565b60405180910390f35b6100b36101f3565b6040516100c09190610c47565b60405180910390f35b6100e360048036038101906100de9190610d07565b6101f9565b6040516100f09190610db7565b60405180910390f35b610101610472565b60405161010e9190610c47565b60405180910390f35b61011f61047b565b60405161012c9190610c13565b60405180910390f35b61014f600480360381019061014a9190610d07565b6104a1565b60405161015c9190610db7565b60405180910390f35b61017f600480360381019061017a9190610dd2565b61074f565b604051610190959493929190610e98565b60405180910390f35b6101b360048036038101906101ae9190611022565b610902565b6040516101c09190610c47565b60405180910390f35b6000600160009054906101000a900473ffffffffffffffffffffffffffffffffffffffff16905090565b60005481565b6000600160009054906101000a900473ffffffffffffffffffffffffffffffffffffffff1673ffffffffffffffffffffffffffffffffffffffff163373ffffffffffffffffffffffffffffffffffffffff161461028b576040517f08c379a000000000000000000000000000000000000000000000000000000000815260040161028290611117565b60405180910390fd5b60006002878760405161029f929190611167565b908152602001604051809103902090506000818054905011156104635760005b81805490508110156104585785856040516020016102de929190611167565b6040516020818303038152906040528051906020012082828154811061030757610306611180565b5b906000526020600020906003020160000160405160200161032891906112a4565b604051602081830303815290604052805190602001201415610445578382828154811061035857610357611180565b5b906000526020600020906003020160010154106103de578382828154811061038357610382611180565b5b906000526020600020906003020160010160008282546103a391906112ea565b92505081905550428282815481106103be576103bd611180565b5b906000526020600020906003020160020181905550600192505050610469565b8787858484815481106103f4576103f3611180565b5b9060005260206000209060030201600101546040517ffc533f3a00000000000000000000000000000000000000000000000000000000815260040161043c949392919061134b565b60405180910390fd5b80806104509061138b565b9150506102bf565b506000915050610469565b60009150505b95945050505050565b60008054905090565b600160009054906101000a900473ffffffffffffffffffffffffffffffffffffffff1681565b6000600160009054906101000a900473ffffffffffffffffffffffffffffffffffffffff1673ffffffffffffffffffffffffffffffffffffffff163373ffffffffffffffffffffffffffffffffffffffff1614610533576040517f08c379a000000000000000000000000000000000000000000000000000000000815260040161052a90611117565b60405180910390fd5b600060028787604051610547929190611167565b908152602001604051809103902090506000818054905011156106745760005b818054905081101561066e578585604051602001610586929190611167565b604051602081830303815290604052805190602001208282815481106105af576105ae611180565b5b90600052602060002090600302016000016040516020016105d091906112a4565b60405160208183030381529060405280519060200120141561065b5783828281548110610600576105ff611180565b5b9060005260206000209060030201600101600082825461062091906113d4565b925050819055504282828154811061063b5761063a611180565b5b906000526020600020906003020160020181905550600192505050610746565b80806106669061138b565b915050610567565b50610740565b6000604051806060016040528087878080601f016020809104026020016040519081016040528093929190818152602001838380828437600081840152601f19601f82011690508083019250505050505050815260200185815260200142815250905081819080600181540180825580915050600190039060005260206000209060030201600090919091909150600082015181600001908051906020019061071e929190610b2f565b5060208201518160010155604082015181600201555050600192505050610746565b60009150505b95945050505050565b606060008060008060006003600088815260200190815260200160002060405180610100016040529081600082018054610788906111de565b80601f01602080910402602001604051908101604052809291908181526020018280546107b4906111de565b80156108015780601f106107d657610100808354040283529160200191610801565b820191906000526020600020905b8154815290600101906020018083116107e457829003601f168201915b505050505081526020016001820154815260200160028201548152602001600382015481526020016004820154815260200160058201548152602001600682015481526020016007820160009054906101000a900473ffffffffffffffffffffffffffffffffffffffff1673ffffffffffffffffffffffffffffffffffffffff1673ffffffffffffffffffffffffffffffffffffffff1681525050905060008160600151146108d35780600001518160200151826060015183608001518460a0015195509550955095509550506108f9565b600080600080604051806020016040528060008152509392919095509550955095509550505b91939590929450565b6000600160009054906101000a900473ffffffffffffffffffffffffffffffffffffffff1673ffffffffffffffffffffffffffffffffffffffff163373ffffffffffffffffffffffffffffffffffffffff1614610994576040517f08c379a000000000000000000000000000000000000000000000000000000000815260040161098b90611117565b60405180910390fd5b600033426040516020016109a9929190611493565b6040516020818303038152906040528051906020012060001c90506000604051806101000160405280888152602001878152602001868152602001858152602001600081526020014281526020014281526020013373ffffffffffffffffffffffffffffffffffffffff16815250905080600360008481526020019081526020016000206000820151816000019080519060200190610a49929190610b2f565b506020820151816001015560408201518160020155606082015181600301556080820151816004015560a0820151816005015560c0820151816006015560e08201518160070160006101000a81548173ffffffffffffffffffffffffffffffffffffffff021916908373ffffffffffffffffffffffffffffffffffffffff1602179055509050506001600080828254610ae291906113d4565b925050819055507f9cdab051e636f3ce289ca81ccbf0979c507210ddb7f490186e0b711aac149a6b8783604051610b1a9291906114bf565b60405180910390a18192505050949350505050565b828054610b3b906111de565b90600052602060002090601f016020900481019282610b5d5760008555610ba4565b82601f10610b7657805160ff1916838001178555610ba4565b82800160010185558215610ba4579182015b82811115610ba3578251825591602001919060010190610b88565b5b509050610bb19190610bb5565b5090565b5b80821115610bce576000816000905550600101610bb6565b5090565b600073ffffffffffffffffffffffffffffffffffffffff82169050919050565b6000610bfd82610bd2565b9050919050565b610c0d81610bf2565b82525050565b6000602082019050610c286000830184610c04565b92915050565b6000819050919050565b610c4181610c2e565b82525050565b6000602082019050610c5c6000830184610c38565b92915050565b6000604051905090565b600080fd5b600080fd5b600080fd5b600080fd5b600080fd5b60008083601f840112610c9b57610c9a610c76565b5b8235905067ffffffffffffffff811115610cb857610cb7610c7b565b5b602083019150836001820283011115610cd457610cd3610c80565b5b9250929050565b610ce481610c2e565b8114610cef57600080fd5b50565b600081359050610d0181610cdb565b92915050565b600080600080600060608688031215610d2357610d22610c6c565b5b600086013567ffffffffffffffff811115610d4157610d40610c71565b5b610d4d88828901610c85565b9550955050602086013567ffffffffffffffff811115610d7057610d6f610c71565b5b610d7c88828901610c85565b93509350506040610d8f88828901610cf2565b9150509295509295909350565b60008115159050919050565b610db181610d9c565b82525050565b6000602082019050610dcc6000830184610da8565b92915050565b600060208284031215610de857610de7610c6c565b5b6000610df684828501610cf2565b91505092915050565b600081519050919050565b600082825260208201905092915050565b60005b83811015610e39578082015181840152602081019050610e1e565b83811115610e48576000848401525b50505050565b6000601f19601f8301169050919050565b6000610e6a82610dff565b610e748185610e0a565b9350610e84818560208601610e1b565b610e8d81610e4e565b840191505092915050565b600060a0820190508181036000830152610eb28188610e5f565b9050610ec16020830187610c38565b610ece6040830186610c38565b610edb6060830185610c38565b610ee86080830184610c38565b9695505050505050565b600080fd5b7f4e487b7100000000000000000000000000000000000000000000000000000000600052604160045260246000fd5b610f2f82610e4e565b810181811067ffffffffffffffff82111715610f4e57610f4d610ef7565b5b80604052505050565b6000610f61610c62565b9050610f6d8282610f26565b919050565b600067ffffffffffffffff821115610f8d57610f8c610ef7565b5b610f9682610e4e565b9050602081019050919050565b82818337600083830152505050565b6000610fc5610fc084610f72565b610f57565b905082815260208101848484011115610fe157610fe0610ef2565b5b610fec848285610fa3565b509392505050565b600082601f83011261100957611008610c76565b5b8135611019848260208601610fb2565b91505092915050565b6000806000806080858703121561103c5761103b610c6c565b5b600085013567ffffffffffffffff81111561105a57611059610c71565b5b61106687828801610ff4565b945050602061107787828801610cf2565b935050604061108887828801610cf2565b925050606061109987828801610cf2565b91505092959194509250565b7f43616c6c6572206973206e6f7420746865206f776e6572206f6620746869732060008201527f636f6e7472616374000000000000000000000000000000000000000000000000602082015250565b6000611101602883610e0a565b915061110c826110a5565b604082019050919050565b60006020820190508181036000830152611130816110f4565b9050919050565b600081905092915050565b600061114e8385611137565b935061115b838584610fa3565b82840190509392505050565b6000611174828486611142565b91508190509392505050565b7f4e487b7100000000000000000000000000000000000000000000000000000000600052603260045260246000fd5b7f4e487b7100000000000000000000000000000000000000000000000000000000600052602260045260246000fd5b600060028204905060018216806111f657607f821691505b6020821081141561120a576112096111af565b5b50919050565b60008190508160005260206000209050919050565b60008154611232816111de565b61123c8186611137565b9450600182166000811461125757600181146112685761129b565b60ff1983168652818601935061129b565b61127185611210565b60005b8381101561129357815481890152600182019150602081019050611274565b838801955050505b50505092915050565b60006112b08284611225565b915081905092915050565b7f4e487b7100000000000000000000000000000000000000000000000000000000600052601160045260246000fd5b60006112f582610c2e565b915061130083610c2e565b925082821015611313576113126112bb565b5b828203905092915050565b600061132a8385610e0a565b9350611337838584610fa3565b61134083610e4e565b840190509392505050565b6000606082019050818103600083015261136681868861131e565b90506113756020830185610c38565b6113826040830184610c38565b95945050505050565b600061139682610c2e565b91507fffffffffffffffffffffffffffffffffffffffffffffffffffffffffffffffff8214156113c9576113c86112bb565b5b600182019050919050565b60006113df82610c2e565b91506113ea83610c2e565b9250827fffffffffffffffffffffffffffffffffffffffffffffffffffffffffffffffff0382111561141f5761141e6112bb565b5b828201905092915050565b60008160601b9050919050565b60006114428261142a565b9050919050565b600061145482611437565b9050919050565b61146c61146782610bf2565b611449565b82525050565b6000819050919050565b61148d61148882610c2e565b611472565b82525050565b600061149f828561145b565b6014820191506114af828461147c565b6020820191508190509392505050565b600060408201905081810360008301526114d98185610e5f565b90506114e86020830184610c38565b939250505056fea2646970667358221220b4ad8b86113cd64062a08812b7cf0b950121b86e4ff628ae70e77f77ebb5f49664736f6c634300080b0033",
  "immutableReferences": {},
  "source": "// SPDX-License-Identifier: MIT\npragma solidity >=0.4.22 <0.9.0;\n\ncontract FractionalAsset {\n    \n // a structure to represent an asset\n    struct Digital_Asset {\n        string ticker;\n        uint amount;\n        uint price_per_token;\n        uint total_supply;\n        uint in_circulation;\n        uint created_timestamp;\n        uint updated_timestamp;\n        address created_by;\n    }\n\n    // a structure to represent a user's portfolio\n    struct Portfolio {\n        string asset_ticker;\n        uint size;\n        uint created_timestamp;\n    }\n\n\n    uint public total_assets; // total number of assets tokenized\n\n    address public owner; // the owner of this smart contract\n\n    mapping (string => Portfolio[]) private user_portfolio; // maps a user to a list of portfolio\n\n    mapping(uint => Digital_Asset) private braqqet_assets; // A map of lands\n\n    // ensure that only the owner can perform this operation where ever is_owner is used\n    modifier is_owner(){\n        require(msg.sender == owner, \"Caller is not the owner of this contract\");\n        _;\n    }\n\n    event NewAssetCreatedEvent(string asset_ticker, uint asset_token_id);\n    error NotEnoughFunds(string user_id, uint requested, uint available);\n\n    constructor(){\n        owner = msg.sender;\n        total_assets = 0;\n    }\n\n    // a function to tokenize assets on the blockchain\n    function tokenize(string memory ticker, uint amount,  uint token_price, uint total_supply) is_owner external returns (uint){\n        \n        uint asset_id = uint(keccak256(abi.encodePacked(msg.sender, block.timestamp)));\n        Digital_Asset memory asset = Digital_Asset(ticker, amount, token_price, total_supply, 0, block.timestamp, block.timestamp, msg.sender);\n        braqqet_assets[asset_id] = asset;\n        total_assets+=1;\n        \n        emit NewAssetCreatedEvent(ticker, asset_id);\n        return asset_id;\n    }\n\n    //get's information about a land\n    function get_asset_details(uint asset_id) public view returns (string memory, uint, uint, uint, uint){\n         Digital_Asset memory temp_asset = braqqet_assets[asset_id];\n        if (temp_asset.total_supply != 0){\n\n            return (temp_asset.ticker, temp_asset.amount, temp_asset.total_supply, temp_asset.in_circulation, temp_asset.created_timestamp);\n        } else{\n            return ('',0,0,0,0);\n        }\n        \n    }\n\n    function get_total_assets() external view returns (uint){\n        return total_assets;\n    }\n\n    \n    function get_owner() external view returns (address){\n        return owner;\n    }\n\n    function buy_asset(string calldata user_id, string calldata asset_ticker, uint size) external is_owner returns (bool is_successful){\n\n        // check if user has already bought some assets\n        Portfolio[] storage portfolio = user_portfolio[user_id];\n\n        if (portfolio.length > 0){\n\n            for (uint i = 0; i < portfolio.length; i++){\n                // check if user wants to add to an existing asset\n                if (keccak256(abi.encodePacked((portfolio[i].asset_ticker))) == keccak256(abi.encodePacked((asset_ticker)))) {\n                    portfolio[i].size += size;\n                    portfolio[i].created_timestamp = block.timestamp;\n                    return true; \n                }\n            }\n\n        } else{\n            Portfolio memory new_portfolio = Portfolio(asset_ticker, size, block.timestamp);\n            portfolio.push(new_portfolio);\n            return true;\n        }\n\n        return false;\n    }\n\n    function sell_asset(string calldata user_id, string calldata asset_ticker, uint size) external is_owner returns (bool is_successful){\n\n        // check if user has already bought some assets\n        Portfolio[] storage portfolio = user_portfolio[user_id];\n\n        if (portfolio.length > 0){\n\n            for (uint i = 0; i < portfolio.length; i++){\n                // check if user wants to add to an existing asset\n                if (keccak256(abi.encodePacked((portfolio[i].asset_ticker))) == keccak256(abi.encodePacked((asset_ticker)))) {\n\n                    // you cannot sell more than you own\n                    if (portfolio[i].size >= size){\n                        portfolio[i].size -= size;\n                        portfolio[i].created_timestamp = block.timestamp;\n                        return true; \n                    } else{\n                        revert NotEnoughFunds(user_id, size, portfolio[i].size);\n\n                    }\n\n                }\n            }\n            return false;\n        }\n        return false;\n    }\n}\n",
  "sourcePath": "C:\\Users\\Hp\\Downloads\\Braqqet\\asset-tokenization\\contracts\\FractionalAsset.sol",
  "compiler": {
    "name": "solc",
    "version": "0.8.11+commit.d7f03943.Emscripten.clang"
  },
  "schemaVersion": "3.4.4",
  "updatedAt": "2022-04-04T07:53:51.675Z",
  "devdoc": {
    "kind": "dev",
    "methods": {},
    "version": 1
  },
  "userdoc": {
    "kind": "user",
    "methods": {},
    "version": 1
  }
}