{
  "contractName": "FractionalAsset",
  "abi": [
    {
      "inputs": [],
      "stateMutability": "nonpayable",
      "type": "constructor"
    },
    {
      "inputs": [],
      "name": "owner",
      "outputs": [
        {
          "internalType": "address",
          "name": "",
          "type": "address"
        }
      ],
      "stateMutability": "view",
      "type": "function",
      "constant": true
    },
    {
      "inputs": [],
      "name": "total_assets",
      "outputs": [
        {
          "internalType": "uint256",
          "name": "",
          "type": "uint256"
        }
      ],
      "stateMutability": "view",
      "type": "function",
      "constant": true
    },
    {
      "inputs": [
        {
          "internalType": "string",
          "name": "ticker",
          "type": "string"
        },
        {
          "internalType": "uint256",
          "name": "amount",
          "type": "uint256"
        },
        {
          "internalType": "uint256",
          "name": "token_price",
          "type": "uint256"
        },
        {
          "internalType": "uint256",
          "name": "total_supply",
          "type": "uint256"
        }
      ],
      "name": "tokenize",
      "outputs": [
        {
          "internalType": "uint256",
          "name": "",
          "type": "uint256"
        }
      ],
      "stateMutability": "nonpayable",
      "type": "function"
    },
    {
      "inputs": [
        {
          "internalType": "uint256",
          "name": "asset_id",
          "type": "uint256"
        }
      ],
      "name": "get_asset_details",
      "outputs": [
        {
          "internalType": "string",
          "name": "",
          "type": "string"
        },
        {
          "internalType": "uint256",
          "name": "",
          "type": "uint256"
        },
        {
          "internalType": "uint256",
          "name": "",
          "type": "uint256"
        },
        {
          "internalType": "uint256",
          "name": "",
          "type": "uint256"
        },
        {
          "internalType": "uint256",
          "name": "",
          "type": "uint256"
        }
      ],
      "stateMutability": "view",
      "type": "function",
      "constant": true
    },
    {
      "inputs": [],
      "name": "get_total_assets",
      "outputs": [
        {
          "internalType": "uint256",
          "name": "",
          "type": "uint256"
        }
      ],
      "stateMutability": "view",
      "type": "function",
      "constant": true
    }
  ],
  "bytecode": "0x608060405234801561001057600080fd5b5033600160006101000a81548173ffffffffffffffffffffffffffffffffffffffff021916908373ffffffffffffffffffffffffffffffffffffffff16021790555060008081905550610b5e806100686000396000f3fe608060405234801561001057600080fd5b50600436106100575760003560e01c80630b3d04701461005c5780637d596a681461007a5780638da5cb5b14610098578063b5afe29f146100b6578063d878c902146100ea575b600080fd5b61006461011a565b60405161007191906105b2565b60405180910390f35b610082610120565b60405161008f91906105b2565b60405180910390f35b6100a0610129565b6040516100ad919061060e565b60405180910390f35b6100d060048036038101906100cb9190610669565b61014f565b6040516100e195949392919061072f565b60405180910390f35b61010460048036038101906100ff91906108be565b610302565b60405161011191906105b2565b60405180910390f35b60005481565b60008054905090565b600160009054906101000a900473ffffffffffffffffffffffffffffffffffffffff1681565b60606000806000806000600360008881526020019081526020016000206040518061010001604052908160008201805461018890610970565b80601f01602080910402602001604051908101604052809291908181526020018280546101b490610970565b80156102015780601f106101d657610100808354040283529160200191610201565b820191906000526020600020905b8154815290600101906020018083116101e457829003601f168201915b505050505081526020016001820154815260200160028201548152602001600382015481526020016004820154815260200160058201548152602001600682015481526020016007820160009054906101000a900473ffffffffffffffffffffffffffffffffffffffff1673ffffffffffffffffffffffffffffffffffffffff1673ffffffffffffffffffffffffffffffffffffffff1681525050905060008160600151146102d35780600001518160200151826060015183608001518460a0015195509550955095509550506102f9565b600080600080604051806020016040528060008152509392919095509550955095509550505b91939590929450565b6000600160009054906101000a900473ffffffffffffffffffffffffffffffffffffffff1673ffffffffffffffffffffffffffffffffffffffff163373ffffffffffffffffffffffffffffffffffffffff1614610394576040517f08c379a000000000000000000000000000000000000000000000000000000000815260040161038b906109ee565b60405180910390fd5b600033426040516020016103a9929190610a77565b6040516020818303038152906040528051906020012060001c90506000604051806101000160405280888152602001878152602001868152602001858152602001600081526020014281526020014281526020013373ffffffffffffffffffffffffffffffffffffffff168152509050806003600084815260200190815260200160002060008201518160000190805190602001906104499291906104f6565b506020820151816001015560408201518160020155606082015181600301556080820151816004015560a0820151816005015560c0820151816006015560e08201518160070160006101000a81548173ffffffffffffffffffffffffffffffffffffffff021916908373ffffffffffffffffffffffffffffffffffffffff16021790555090505060016000808282546104e29190610ad2565b925050819055508192505050949350505050565b82805461050290610970565b90600052602060002090601f016020900481019282610524576000855561056b565b82601f1061053d57805160ff191683800117855561056b565b8280016001018555821561056b579182015b8281111561056a57825182559160200191906001019061054f565b5b509050610578919061057c565b5090565b5b8082111561059557600081600090555060010161057d565b5090565b6000819050919050565b6105ac81610599565b82525050565b60006020820190506105c760008301846105a3565b92915050565b600073ffffffffffffffffffffffffffffffffffffffff82169050919050565b60006105f8826105cd565b9050919050565b610608816105ed565b82525050565b600060208201905061062360008301846105ff565b92915050565b6000604051905090565b600080fd5b600080fd5b61064681610599565b811461065157600080fd5b50565b6000813590506106638161063d565b92915050565b60006020828403121561067f5761067e610633565b5b600061068d84828501610654565b91505092915050565b600081519050919050565b600082825260208201905092915050565b60005b838110156106d05780820151818401526020810190506106b5565b838111156106df576000848401525b50505050565b6000601f19601f8301169050919050565b600061070182610696565b61070b81856106a1565b935061071b8185602086016106b2565b610724816106e5565b840191505092915050565b600060a082019050818103600083015261074981886106f6565b905061075860208301876105a3565b61076560408301866105a3565b61077260608301856105a3565b61077f60808301846105a3565b9695505050505050565b600080fd5b600080fd5b7f4e487b7100000000000000000000000000000000000000000000000000000000600052604160045260246000fd5b6107cb826106e5565b810181811067ffffffffffffffff821117156107ea576107e9610793565b5b80604052505050565b60006107fd610629565b905061080982826107c2565b919050565b600067ffffffffffffffff82111561082957610828610793565b5b610832826106e5565b9050602081019050919050565b82818337600083830152505050565b600061086161085c8461080e565b6107f3565b90508281526020810184848401111561087d5761087c61078e565b5b61088884828561083f565b509392505050565b600082601f8301126108a5576108a4610789565b5b81356108b584826020860161084e565b91505092915050565b600080600080608085870312156108d8576108d7610633565b5b600085013567ffffffffffffffff8111156108f6576108f5610638565b5b61090287828801610890565b945050602061091387828801610654565b935050604061092487828801610654565b925050606061093587828801610654565b91505092959194509250565b7f4e487b7100000000000000000000000000000000000000000000000000000000600052602260045260246000fd5b6000600282049050600182168061098857607f821691505b6020821081141561099c5761099b610941565b5b50919050565b7f43616c6c6572206973206e6f74206f776e657200000000000000000000000000600082015250565b60006109d86013836106a1565b91506109e3826109a2565b602082019050919050565b60006020820190508181036000830152610a07816109cb565b9050919050565b60008160601b9050919050565b6000610a2682610a0e565b9050919050565b6000610a3882610a1b565b9050919050565b610a50610a4b826105ed565b610a2d565b82525050565b6000819050919050565b610a71610a6c82610599565b610a56565b82525050565b6000610a838285610a3f565b601482019150610a938284610a60565b6020820191508190509392505050565b7f4e487b7100000000000000000000000000000000000000000000000000000000600052601160045260246000fd5b6000610add82610599565b9150610ae883610599565b9250827fffffffffffffffffffffffffffffffffffffffffffffffffffffffffffffffff03821115610b1d57610b1c610aa3565b5b82820190509291505056fea26469706673582212205256d68dc8a96d08a228104d9b32d7787f2f40a15cc713f75788aa2ddb44826b64736f6c634300080b0033",
  "immutableReferences": {},
  "source": "// SPDX-License-Identifier: MIT\npragma solidity >=0.4.22 <0.9.0;\n\ncontract FractionalAsset {\n    \n // a structure to represent an asset\n    struct Digital_Asset {\n        string ticker;\n        uint amount;\n        uint price_per_token;\n        uint total_supply;\n        uint in_circulation;\n        uint created_timestamp;\n        uint updated_timestamp;\n        address created_by;\n    }\n\n    // a structure to represent a user's portfolio\n    struct Portfolio {\n        string asset_ticker;\n        uint size;\n        uint created_timestamp;\n    }\n\n    //Digital_Asset[] public braqqet_assets; // an array to keep track of all assets ever tokenized\n\n    uint public total_assets; // total number of assets tokenized\n\n    address public owner; // the owner of this smart contract\n\n    mapping (string => Portfolio[]) private user_portfolio; // maps a user to a list of portfolio\n\n    mapping(uint => Digital_Asset) private braqqet_assets; // A map of lands\n\n    // ensure that only the owner can perform this operation where ever is_owner is used\n    modifier is_owner(){\n        require(msg.sender == owner, \"Caller is not owner\");\n        _;\n    }\n\n    constructor(){\n        owner = msg.sender;\n        total_assets = 0;\n    }\n\n    // a function to tokenize assets on the blockchain\n    function tokenize(string memory ticker, uint amount,  uint token_price, uint total_supply) is_owner external returns (uint){\n        \n        uint asset_id = uint(keccak256(abi.encodePacked(msg.sender, block.timestamp)));\n        Digital_Asset memory asset = Digital_Asset(ticker, amount, token_price, total_supply, 0, block.timestamp, block.timestamp, msg.sender);\n        braqqet_assets[asset_id] = asset;\n        total_assets+=1;\n        return asset_id;\n    }\n\n    //get's information about a land\n    function get_asset_details(uint asset_id) public view returns (string memory, uint, uint, uint, uint){\n         Digital_Asset memory temp_asset = braqqet_assets[asset_id];\n        if (temp_asset.total_supply != 0){\n\n            return (temp_asset.ticker, temp_asset.amount, temp_asset.total_supply, temp_asset.in_circulation, temp_asset.created_timestamp);\n        } else{\n            return ('',0,0,0,0);\n        }\n        \n    }\n\n    function get_total_assets() external view returns (uint){\n        return total_assets;\n    }\n}\n",
  "sourcePath": "C:\\Users\\Hp\\Downloads\\Braqqet\\asset-tokenization\\contracts\\FractionalAsset.sol",
  "compiler": {
    "name": "solc",
    "version": "0.8.11+commit.d7f03943.Emscripten.clang"
  },
  "schemaVersion": "3.4.4",
  "updatedAt": "2022-02-19T17:26:28.119Z",
  "networkType": "ethereum",
  "devdoc": {
    "kind": "dev",
    "methods": {},
    "version": 1
  },
  "userdoc": {
    "kind": "user",
    "methods": {},
    "version": 1
  }
}