{
  "contractName": "FractionalAsset",
  "abi": [
    {
      "inputs": [],
      "stateMutability": "nonpayable",
      "type": "constructor"
    },
    {
      "inputs": [
        {
          "internalType": "uint256",
          "name": "requested",
          "type": "uint256"
        },
        {
          "internalType": "uint256",
          "name": "available",
          "type": "uint256"
        }
      ],
      "name": "NotEnoughFunds",
      "type": "error"
    },
    {
      "anonymous": false,
      "inputs": [
        {
          "indexed": true,
          "internalType": "address",
          "name": "sender",
          "type": "address"
        },
        {
          "indexed": false,
          "internalType": "uint256",
          "name": "asset_id",
          "type": "uint256"
        }
      ],
      "name": "NewAssetCreatedEvent",
      "type": "event"
    },
    {
      "inputs": [],
      "name": "owner",
      "outputs": [
        {
          "internalType": "address",
          "name": "",
          "type": "address"
        }
      ],
      "stateMutability": "view",
      "type": "function",
      "constant": true
    },
    {
      "inputs": [],
      "name": "total_assets",
      "outputs": [
        {
          "internalType": "uint256",
          "name": "",
          "type": "uint256"
        }
      ],
      "stateMutability": "view",
      "type": "function",
      "constant": true
    },
    {
      "inputs": [
        {
          "internalType": "string",
          "name": "ticker",
          "type": "string"
        },
        {
          "internalType": "uint256",
          "name": "amount",
          "type": "uint256"
        },
        {
          "internalType": "uint256",
          "name": "token_price",
          "type": "uint256"
        },
        {
          "internalType": "uint256",
          "name": "total_supply",
          "type": "uint256"
        }
      ],
      "name": "tokenize",
      "outputs": [
        {
          "internalType": "uint256",
          "name": "",
          "type": "uint256"
        }
      ],
      "stateMutability": "nonpayable",
      "type": "function"
    },
    {
      "inputs": [
        {
          "internalType": "uint256",
          "name": "asset_id",
          "type": "uint256"
        }
      ],
      "name": "get_asset_details",
      "outputs": [
        {
          "internalType": "string",
          "name": "",
          "type": "string"
        },
        {
          "internalType": "uint256",
          "name": "",
          "type": "uint256"
        },
        {
          "internalType": "uint256",
          "name": "",
          "type": "uint256"
        },
        {
          "internalType": "uint256",
          "name": "",
          "type": "uint256"
        },
        {
          "internalType": "uint256",
          "name": "",
          "type": "uint256"
        }
      ],
      "stateMutability": "view",
      "type": "function",
      "constant": true
    },
    {
      "inputs": [],
      "name": "get_total_assets",
      "outputs": [
        {
          "internalType": "uint256",
          "name": "",
          "type": "uint256"
        }
      ],
      "stateMutability": "view",
      "type": "function",
      "constant": true
    },
    {
      "inputs": [
        {
          "internalType": "string",
          "name": "user_id",
          "type": "string"
        },
        {
          "internalType": "string",
          "name": "asset_ticker",
          "type": "string"
        },
        {
          "internalType": "uint256",
          "name": "size",
          "type": "uint256"
        }
      ],
      "name": "buy_asset",
      "outputs": [
        {
          "internalType": "bool",
          "name": "is_successful",
          "type": "bool"
        }
      ],
      "stateMutability": "nonpayable",
      "type": "function"
    },
    {
      "inputs": [
        {
          "internalType": "string",
          "name": "user_id",
          "type": "string"
        },
        {
          "internalType": "string",
          "name": "asset_ticker",
          "type": "string"
        },
        {
          "internalType": "uint256",
          "name": "size",
          "type": "uint256"
        }
      ],
      "name": "sell_asset",
      "outputs": [
        {
          "internalType": "bool",
          "name": "is_successful",
          "type": "bool"
        }
      ],
      "stateMutability": "nonpayable",
      "type": "function"
    }
  ],
  "bytecode": "0x608060405234801561001057600080fd5b5033600160006101000a81548173ffffffffffffffffffffffffffffffffffffffff021916908373ffffffffffffffffffffffffffffffffffffffff160217905550600080819055506113be806100686000396000f3fe608060405234801561001057600080fd5b506004361061007d5760003560e01c80638da5cb5b1161005b5780638da5cb5b146100ee578063b53dd0261461010c578063b5afe29f1461013c578063d878c902146101705761007d565b80630b3d0470146100825780637c5f18f5146100a05780637d596a68146100d0575b600080fd5b61008a6101a0565b6040516100979190610b47565b60405180910390f35b6100ba60048036038101906100b59190610c07565b6101a6565b6040516100c79190610cb7565b60405180910390f35b6100d86103b9565b6040516100e59190610b47565b60405180910390f35b6100f66103c2565b6040516101039190610d13565b60405180910390f35b61012660048036038101906101219190610c07565b6103e8565b6040516101339190610cb7565b60405180910390f35b61015660048036038101906101519190610d2e565b610696565b604051610167959493929190610df4565b60405180910390f35b61018a60048036038101906101859190610f7e565b610849565b6040516101979190610b47565b60405180910390f35b60005481565b6000600160009054906101000a900473ffffffffffffffffffffffffffffffffffffffff1673ffffffffffffffffffffffffffffffffffffffff163373ffffffffffffffffffffffffffffffffffffffff1614610238576040517f08c379a000000000000000000000000000000000000000000000000000000000815260040161022f9061104d565b60405180910390fd5b60006002878760405161024c92919061109d565b908152602001604051809103902090506000818054905011156103aa5760005b818054905081101561039f57858560405160200161028b92919061109d565b604051602081830303815290604052805190602001208282815481106102b4576102b36110b6565b5b90600052602060002090600302016000016040516020016102d591906111da565b60405160208183030381529060405280519060200120141561038c5783828281548110610305576103046110b6565b5b9060005260206000209060030201600101541061038b57838282815481106103305761032f6110b6565b5b906000526020600020906003020160010160008282546103509190611220565b925050819055504282828154811061036b5761036a6110b6565b5b9060005260206000209060030201600201819055506001925050506103b0565b5b808061039790611254565b91505061026c565b5060009150506103b0565b60009150505b95945050505050565b60008054905090565b600160009054906101000a900473ffffffffffffffffffffffffffffffffffffffff1681565b6000600160009054906101000a900473ffffffffffffffffffffffffffffffffffffffff1673ffffffffffffffffffffffffffffffffffffffff163373ffffffffffffffffffffffffffffffffffffffff161461047a576040517f08c379a00000000000000000000000000000000000000000000000000000000081526004016104719061104d565b60405180910390fd5b60006002878760405161048e92919061109d565b908152602001604051809103902090506000818054905011156105bb5760005b81805490508110156105b55785856040516020016104cd92919061109d565b604051602081830303815290604052805190602001208282815481106104f6576104f56110b6565b5b906000526020600020906003020160000160405160200161051791906111da565b6040516020818303038152906040528051906020012014156105a25783828281548110610547576105466110b6565b5b90600052602060002090600302016001016000828254610567919061129d565b9250508190555042828281548110610582576105816110b6565b5b90600052602060002090600302016002018190555060019250505061068d565b80806105ad90611254565b9150506104ae565b50610687565b6000604051806060016040528087878080601f016020809104026020016040519081016040528093929190818152602001838380828437600081840152601f19601f820116905080830192505050505050508152602001858152602001428152509050818190806001815401808255809150506001900390600052602060002090600302016000909190919091506000820151816000019080519060200190610665929190610a8b565b506020820151816001015560408201518160020155505060019250505061068d565b60009150505b95945050505050565b6060600080600080600060036000888152602001908152602001600020604051806101000160405290816000820180546106cf90611114565b80601f01602080910402602001604051908101604052809291908181526020018280546106fb90611114565b80156107485780601f1061071d57610100808354040283529160200191610748565b820191906000526020600020905b81548152906001019060200180831161072b57829003601f168201915b505050505081526020016001820154815260200160028201548152602001600382015481526020016004820154815260200160058201548152602001600682015481526020016007820160009054906101000a900473ffffffffffffffffffffffffffffffffffffffff1673ffffffffffffffffffffffffffffffffffffffff1673ffffffffffffffffffffffffffffffffffffffff16815250509050600081606001511461081a5780600001518160200151826060015183608001518460a001519550955095509550955050610840565b600080600080604051806020016040528060008152509392919095509550955095509550505b91939590929450565b6000600160009054906101000a900473ffffffffffffffffffffffffffffffffffffffff1673ffffffffffffffffffffffffffffffffffffffff163373ffffffffffffffffffffffffffffffffffffffff16146108db576040517f08c379a00000000000000000000000000000000000000000000000000000000081526004016108d29061104d565b60405180910390fd5b600033426040516020016108f092919061135c565b6040516020818303038152906040528051906020012060001c90506000604051806101000160405280888152602001878152602001868152602001858152602001600081526020014281526020014281526020013373ffffffffffffffffffffffffffffffffffffffff16815250905080600360008481526020019081526020016000206000820151816000019080519060200190610990929190610a8b565b506020820151816001015560408201518160020155606082015181600301556080820151816004015560a0820151816005015560c0820151816006015560e08201518160070160006101000a81548173ffffffffffffffffffffffffffffffffffffffff021916908373ffffffffffffffffffffffffffffffffffffffff1602179055509050506001600080828254610a29919061129d565b925050819055503373ffffffffffffffffffffffffffffffffffffffff167f663cb8c93658a734a8b2c70156a63398c707a457877858e80f12eb052e25c1da83604051610a769190610b47565b60405180910390a28192505050949350505050565b828054610a9790611114565b90600052602060002090601f016020900481019282610ab95760008555610b00565b82601f10610ad257805160ff1916838001178555610b00565b82800160010185558215610b00579182015b82811115610aff578251825591602001919060010190610ae4565b5b509050610b0d9190610b11565b5090565b5b80821115610b2a576000816000905550600101610b12565b5090565b6000819050919050565b610b4181610b2e565b82525050565b6000602082019050610b5c6000830184610b38565b92915050565b6000604051905090565b600080fd5b600080fd5b600080fd5b600080fd5b600080fd5b60008083601f840112610b9b57610b9a610b76565b5b8235905067ffffffffffffffff811115610bb857610bb7610b7b565b5b602083019150836001820283011115610bd457610bd3610b80565b5b9250929050565b610be481610b2e565b8114610bef57600080fd5b50565b600081359050610c0181610bdb565b92915050565b600080600080600060608688031215610c2357610c22610b6c565b5b600086013567ffffffffffffffff811115610c4157610c40610b71565b5b610c4d88828901610b85565b9550955050602086013567ffffffffffffffff811115610c7057610c6f610b71565b5b610c7c88828901610b85565b93509350506040610c8f88828901610bf2565b9150509295509295909350565b60008115159050919050565b610cb181610c9c565b82525050565b6000602082019050610ccc6000830184610ca8565b92915050565b600073ffffffffffffffffffffffffffffffffffffffff82169050919050565b6000610cfd82610cd2565b9050919050565b610d0d81610cf2565b82525050565b6000602082019050610d286000830184610d04565b92915050565b600060208284031215610d4457610d43610b6c565b5b6000610d5284828501610bf2565b91505092915050565b600081519050919050565b600082825260208201905092915050565b60005b83811015610d95578082015181840152602081019050610d7a565b83811115610da4576000848401525b50505050565b6000601f19601f8301169050919050565b6000610dc682610d5b565b610dd08185610d66565b9350610de0818560208601610d77565b610de981610daa565b840191505092915050565b600060a0820190508181036000830152610e0e8188610dbb565b9050610e1d6020830187610b38565b610e2a6040830186610b38565b610e376060830185610b38565b610e446080830184610b38565b9695505050505050565b600080fd5b7f4e487b7100000000000000000000000000000000000000000000000000000000600052604160045260246000fd5b610e8b82610daa565b810181811067ffffffffffffffff82111715610eaa57610ea9610e53565b5b80604052505050565b6000610ebd610b62565b9050610ec98282610e82565b919050565b600067ffffffffffffffff821115610ee957610ee8610e53565b5b610ef282610daa565b9050602081019050919050565b82818337600083830152505050565b6000610f21610f1c84610ece565b610eb3565b905082815260208101848484011115610f3d57610f3c610e4e565b5b610f48848285610eff565b509392505050565b600082601f830112610f6557610f64610b76565b5b8135610f75848260208601610f0e565b91505092915050565b60008060008060808587031215610f9857610f97610b6c565b5b600085013567ffffffffffffffff811115610fb657610fb5610b71565b5b610fc287828801610f50565b9450506020610fd387828801610bf2565b9350506040610fe487828801610bf2565b9250506060610ff587828801610bf2565b91505092959194509250565b7f43616c6c6572206973206e6f74206f776e657200000000000000000000000000600082015250565b6000611037601383610d66565b915061104282611001565b602082019050919050565b600060208201905081810360008301526110668161102a565b9050919050565b600081905092915050565b6000611084838561106d565b9350611091838584610eff565b82840190509392505050565b60006110aa828486611078565b91508190509392505050565b7f4e487b7100000000000000000000000000000000000000000000000000000000600052603260045260246000fd5b7f4e487b7100000000000000000000000000000000000000000000000000000000600052602260045260246000fd5b6000600282049050600182168061112c57607f821691505b602082108114156111405761113f6110e5565b5b50919050565b60008190508160005260206000209050919050565b6000815461116881611114565b611172818661106d565b9450600182166000811461118d576001811461119e576111d1565b60ff198316865281860193506111d1565b6111a785611146565b60005b838110156111c9578154818901526001820191506020810190506111aa565b838801955050505b50505092915050565b60006111e6828461115b565b915081905092915050565b7f4e487b7100000000000000000000000000000000000000000000000000000000600052601160045260246000fd5b600061122b82610b2e565b915061123683610b2e565b925082821015611249576112486111f1565b5b828203905092915050565b600061125f82610b2e565b91507fffffffffffffffffffffffffffffffffffffffffffffffffffffffffffffffff821415611292576112916111f1565b5b600182019050919050565b60006112a882610b2e565b91506112b383610b2e565b9250827fffffffffffffffffffffffffffffffffffffffffffffffffffffffffffffffff038211156112e8576112e76111f1565b5b828201905092915050565b60008160601b9050919050565b600061130b826112f3565b9050919050565b600061131d82611300565b9050919050565b61133561133082610cf2565b611312565b82525050565b6000819050919050565b61135661135182610b2e565b61133b565b82525050565b60006113688285611324565b6014820191506113788284611345565b602082019150819050939250505056fea264697066735822122070fd1cd916af4678ae477fb6c51bd01f24ddbeff76d007414554cd074f185df264736f6c634300080b0033",
  "immutableReferences": {},
  "source": "// SPDX-License-Identifier: MIT\npragma solidity >=0.4.22 <0.9.0;\n\ncontract FractionalAsset {\n    \n // a structure to represent an asset\n    struct Digital_Asset {\n        string ticker;\n        uint amount;\n        uint price_per_token;\n        uint total_supply;\n        uint in_circulation;\n        uint created_timestamp;\n        uint updated_timestamp;\n        address created_by;\n    }\n\n    // a structure to represent a user's portfolio\n    struct Portfolio {\n        string asset_ticker;\n        uint size;\n        uint created_timestamp;\n    }\n\n\n    uint public total_assets; // total number of assets tokenized\n\n    address public owner; // the owner of this smart contract\n\n    mapping (string => Portfolio[]) private user_portfolio; // maps a user to a list of portfolio\n\n    mapping(uint => Digital_Asset) private braqqet_assets; // A map of lands\n\n    // ensure that only the owner can perform this operation where ever is_owner is used\n    modifier is_owner(){\n        require(msg.sender == owner, \"Caller is not owner\");\n        _;\n    }\n\n    event NewAssetCreatedEvent(address indexed sender, uint asset_id);\n    error NotEnoughFunds(uint requested, uint available);\n\n    constructor(){\n        owner = msg.sender;\n        total_assets = 0;\n    }\n\n    // a function to tokenize assets on the blockchain\n    function tokenize(string memory ticker, uint amount,  uint token_price, uint total_supply) is_owner external returns (uint){\n        \n        uint asset_id = uint(keccak256(abi.encodePacked(msg.sender, block.timestamp)));\n        Digital_Asset memory asset = Digital_Asset(ticker, amount, token_price, total_supply, 0, block.timestamp, block.timestamp, msg.sender);\n        braqqet_assets[asset_id] = asset;\n        total_assets+=1;\n        \n        emit NewAssetCreatedEvent(msg.sender, asset_id);\n        return asset_id;\n    }\n\n    //get's information about a land\n    function get_asset_details(uint asset_id) public view returns (string memory, uint, uint, uint, uint){\n         Digital_Asset memory temp_asset = braqqet_assets[asset_id];\n        if (temp_asset.total_supply != 0){\n\n            return (temp_asset.ticker, temp_asset.amount, temp_asset.total_supply, temp_asset.in_circulation, temp_asset.created_timestamp);\n        } else{\n            return ('',0,0,0,0);\n        }\n        \n    }\n\n    function get_total_assets() external view returns (uint){\n        return total_assets;\n    }\n\n    function buy_asset(string calldata user_id, string calldata asset_ticker, uint size) external is_owner returns (bool is_successful){\n\n        // check if user has already bought some assets\n        Portfolio[] storage portfolio = user_portfolio[user_id];\n\n        if (portfolio.length > 0){\n\n            for (uint i = 0; i < portfolio.length; i++){\n                // check if user wants to add to an existing asset\n                if (keccak256(abi.encodePacked((portfolio[i].asset_ticker))) == keccak256(abi.encodePacked((asset_ticker)))) {\n                    portfolio[i].size += size;\n                    portfolio[i].created_timestamp = block.timestamp;\n                    return true; \n                }\n            }\n\n        } else{\n            Portfolio memory new_portfolio = Portfolio(asset_ticker, size, block.timestamp);\n            portfolio.push(new_portfolio);\n            return true;\n        }\n\n        return false;\n    }\n\n    function sell_asset(string calldata user_id, string calldata asset_ticker, uint size) external is_owner returns (bool is_successful){\n\n        // check if user has already bought some assets\n        Portfolio[] storage portfolio = user_portfolio[user_id];\n\n        if (portfolio.length > 0){\n\n            for (uint i = 0; i < portfolio.length; i++){\n                // check if user wants to add to an existing asset\n                if (keccak256(abi.encodePacked((portfolio[i].asset_ticker))) == keccak256(abi.encodePacked((asset_ticker)))) {\n\n                    // you cannot sell more than you own\n                    if (portfolio[i].size >= size){\n                        portfolio[i].size -= size;\n                        portfolio[i].created_timestamp = block.timestamp;\n                        return true; \n                    }\n\n                }\n            }\n            return false;\n        }\n\n        return false;\n    }\n}\n",
  "sourcePath": "C:\\Users\\Hp\\Downloads\\Braqqet\\asset-tokenization\\contracts\\FractionalAsset.sol",
  "compiler": {
    "name": "solc",
    "version": "0.8.11+commit.d7f03943.Emscripten.clang"
  },
  "schemaVersion": "3.4.4",
  "updatedAt": "2022-03-12T17:09:04.503Z",
  "networkType": "ethereum",
  "devdoc": {
    "kind": "dev",
    "methods": {},
    "version": 1
  },
  "userdoc": {
    "kind": "user",
    "methods": {},
    "version": 1
  }
}